:020000040000FA
:100000000C946B000C9493000C9493000C9493004C
:100010000C9493000C9493000C9493000C94930014
:100020000C9493000C9493000C9493000C94930004
:100030000C9493000C9493000C9493000C949300F4
:100040000C94F8150C9493000C94C6150C94A01500
:100050000C9493000C9493000C9493000C949300D4
:100060000C9442160C9493007C3C3E5E2B3D3F2F3B
:100070005B5D3B2C2A225C0000000000250028006C
:100080002B000000000023002600290000000008CB
:10009000000201000003040700000000000000004F
:1000A00000000000240027002A000102040810209C
:1000B00040800102040810200102040810200404FA
:1000C0000404040404040202020202020303030300
:1000D00003035D17291C11241FBECFEFD8E0DEBF3C
:1000E000CDBF26E0ACE3B2E001C01D92AD3AB2074D
:1000F000E1F712E0A0E0B1E0E0EDFDE302C0059021
:100100000D92AC33B107D9F710E0CAE6D0E004C0D5
:100110002197FE010E94C71CC936D107C9F70E946A
:1001200068180C94DB1E0C9400008091BC04909124
:10013000BB04891B990B0895E091A706F091A806CE
:100140002081822F90E074E0959587957A95E1F76C
:10015000982F990F990F891B880F820F809398040D
:100160002181822F90E0A4E095958795AA95E1F7EB
:10017000982F990F990F891B880F820F80939904EC
:1001800022813FE326FD3FE13223832F032E000C23
:10019000990B44E0959587954A95E1F7982F990F2B
:1001A000990F891B880F830F80939A04822F90E008
:1001B0009C0156E0359527955A95E1F765E09595B0
:1001C00087956A95E1F7822381708093970481E097
:1001D0000895AF92BF92CF92DF92EF92FF920F936A
:1001E0001F93CF93DF936C017B018B01040F151FCD
:1001F000EB015E01AE18BF08C017D10759F0699135
:10020000D601ED91FC910190F081E02DC601099598
:10021000892B79F7C501DF91CF911F910F91FF9045
:10022000EF90DF90CF90BF90AF900895FC01538D79
:10023000448D252F30E0842F90E0821B930B5417C0
:1002400010F0CF96089501970895FC01918D828D4D
:10025000981761F0A28DAE0FBF2FB11D5D968C91E6
:10026000928D9F5F9F73928F90E008958FEF9FEF25
:100270000895FC01918D828D981731F0828DE80FE1
:10028000F11D858D90E008958FEF9FEF0895FC019B
:10029000918D228D892F90E0805C9F4F821B910968
:1002A0008F73992708958DE095E00E94470121E022
:1002B000892B09F420E0822F089580E090E0892BBB
:1002C00029F00E94530181110C9400000895FC0153
:1002D000A48DA80FB92FB11DA35ABF4F2C91848DA7
:1002E00090E001968F739927848FA689B7892C9304
:1002F000A089B1898C91837080648C93938D848D57
:10030000981306C00288F389E02D80818F7D808359
:100310000895EF92FF920F931F93CF93DF93EC0119
:1003200081E0888F9B8D8C8D98131AC0E889F9899C
:10033000808185FF15C09FB7F894EE89FF8960839F
:10034000E889F98980818370806480839FBF81E020
:1003500090E0DF91CF911F910F91FF90EF90089562
:10036000F62E0B8D10E00F5F1F4F0F731127E02E3D
:100370008C8D8E110CC00FB607FCFACFE889F98975
:10038000808185FFF5CFCE010E946701F1CFEB8D13
:10039000EC0FFD2FF11DE35AFF4FF0829FB7F89449
:1003A0000B8FEA89FB8980818062CFCFCF93DF9367
:1003B000EC01888D8823B9F0AA89BB89E889F9897D
:1003C0008C9185FD03C0808186FD0DC00FB607FCB2
:1003D000F7CF8C9185FFF2CF808185FFEDCFCE01E5
:1003E0000E946701E9CFDF91CF910895833081F0BA
:1003F00028F4813099F08230A9F008958730A9F06F
:100400008830C9F08430B1F4809180008F7D03C0C2
:10041000809180008F7780938000089584B58F77D6
:1004200084BD089584B58F7DFBCF8091B0008F7718
:100430008093B00008958091B0008F7DF9CF1F9315
:10044000CF93DF93282F30E0F901E457FF4F8491D9
:10045000F901E655FF4FD491F901E254FF4FC491E1
:10046000CC23A9F0162F81110E94F601EC2FF0E0A9
:10047000EE0FFF1FE858FF4FA591B4918FB7F89486
:10048000EC91111108C0D095DE23DC938FBFDF9172
:10049000CF911F910895DE2BF8CFCF93DF9390E09B
:1004A000FC01E655FF4F249182549F4FFC0184913B
:1004B0008823D1F090E0880F991FFC01E056FF4F90
:1004C000A591B491FC01E858FF4FC591D4916111F9
:1004D0000EC09FB7F8948C91E22FE0958E238C93F9
:1004E0002881E223E8839FBFDF91CF9108958FB7E2
:1004F000F894EC91E22BEC938FBFF6CF3FB7F894D2
:1005000080918C0290918D02A0918E02B0918F0209
:1005100026B5A89B05C02F3F19F00196A11DB11D5E
:100520003FBFBA2FA92F982F8827BC01CD01620F9A
:10053000711D811D911D42E0660F771F881F991F55
:100540004A95D1F708958F929F92AF92BF92CF9222
:10055000DF92EF92FF924B015C010E947E026B01E1
:100560007C010E947E026C197D098E099F09683EFC
:10057000734081059105A8F321E0821A9108A10832
:10058000B10888EEC80E83E0D81EE11CF11C81146E
:100590009104A104B10429F7FF90EF90DF90CF9070
:1005A000BF90AF909F908F9008952FB7F89460916F
:1005B00088027091890280918A0290918B022FBFEC
:1005C00008958FB7F894809181028FBF089561E0FC
:1005D000FC0184810E941F0280918002811110928F
:1005E000800208958EBD00000DB407FEFDCF8EB5CC
:1005F00008958FEF0C94F2020F931F93CF93DF9324
:10060000EC010E94D5028B010E94F9028F3F69F034
:100610000E94D502601B710B6C177D07A8F380E068
:10062000DF91CF911F910F91089581E0F9CF8CBD9B
:100630009DBD0895CF93DF93EC01809180028111DD
:1006400009C081E0809380028091AA059091AB055A
:100650000E94170360E08C81DF91CF910C941F0200
:100660008F929F92AF92BF92FF920F931F93CF935F
:10067000DF93EC01F62E49015A018E81882389F01F
:100680008F8198859C012F5F3F4F38872F83823061
:10069000924018F40E94F902F3CFCE010E94E702C3
:1006A0001E82CE010E941A038CE291E00E94FC029D
:1006B0008F2D80640E94F20208E110E0D501C40190
:1006C000002E04C0B695A795979587950A94D2F702
:1006D0000E94F20208501109083F8FEF180771F7C6
:1006E00085E9FF2021F028E087E8F2128FEF0E94D1
:1006F000F20210E00E94F9028A8787FF04C01F3FC0
:1007000011F01F5FF7CFDF91CF911F910F91FF90F5
:10071000BF90AF909F908F900895AF92BF92CF926D
:10072000DF92EF92FF920F931F93CF93DF93EC0131
:100730006901C801820F931F8130924050F58E816C
:10074000882379F088819981AA81BB8184179507D4
:10075000A607B70731F48F819885C816D90608F027
:1007600042C0488359836A837B838B85833039F009
:1007700089E0440F551F661F771F8A95D1F79A01AC
:10078000AB0161E1CE010E943003882389F083E050
:100790008D83CE010E94E70280E0DF91CF911F910F
:1007A0000F91FF90EF90DF90CF90BF90AF900895A2
:1007B0000E94D5025B010E94F9028A878F3F69F48B
:1007C0000E94D5026A197B096D327140A0F38FE057
:1007D0008D83CE010E94E702DCCF8E3F89F418861C
:1007E0001F8281E08E838F8198858C159D0550F442
:1007F0000E94F9028F819885019698878F83F3CFA5
:100800008DE0E6CF6701E00EF11E0E94F902F601CD
:1008100081936F01EE15FF05C1F78F819885080F51
:10082000191F18870F838985882319F00115124035
:10083000A0F08E81882389F08F8198859C012F5F9D
:100840003F4F38872F838230924018F40E94F9027C
:10085000F3CFCE010E94E7021E8281E09ECFCF92AD
:10086000DF92EF92FF920F93CF93DF93EC01690138
:1008700082E1411551056105710599F08B85833041
:1008800039F089E0440F551F661F771F8A95D1F70D
:100890009A01AB0168E1CE010E943003882319F070
:1008A00084E08D832DC08EEF0E94F20276018EEFE0
:1008B000D81AF70181917F010E94F202EC14FD0425
:1008C000C1F78FEF0E94F2028FEF0E94F2020E94A6
:1008D000F9028A878F71853071F4011116C0CE013B
:1008E0000E94E70281E0DF91CF910F91FF90EF909E
:1008F000DF90CF90089581E18D83CE010E94E702C1
:10090000CE010E94E70280E0EECF88E592E00E94EF
:10091000FC02811102C085E1C4CF20E030E0A901D2
:100920006DE0CE010E943003882311F084E1B9CF3D
:100930000E94F9028111FACFD2CF0F934091830226
:100940005091840260918502709186024115510593
:100950006105710599F0082F25E932E08091950431
:10096000909196040E942F04882349F010928302EC
:1009700010928402109285021092860281E00F91FB
:1009800008950F93CF93C82F80918202811105C0E3
:10099000C1E08C2FCF910F910895409100015091AB
:1009A000010160910201709103010C2F25E932E0F1
:1009B00080919504909196040E942F04811102C0A9
:1009C000C0E0E7CFCC2321F381E00E949D0488237F
:1009D000B9F310928202DDCF8F929F92AF92BF92B5
:1009E000EF92FF920F931F93CF934B015C01C42FA3
:1009F0008091000190910101A0910201B091030149
:100A000088159905AA05BB0551F181E00E94C10432
:100A100081110BC080E0CF911F910F91FF90EF905B
:100A2000BF90AF909F908F90089585E9E82E82E067
:100A3000F82E00E012E030E020E0B501A401809142
:100A40009504909196040E948D03882319F3809257
:100A5000000190920101A0920201B0920301409125
:100A600082024C2B4093820281E0D5CF8F929F92DD
:100A7000AF92BF92CF92DF92EF92FF92CF932CEA88
:100A800035E03093960420939504882309F46DC0D3
:100A900040E060E070E0CB010E94EC0481110BC0EB
:100AA00080E0CF91FF90EF90DF90CF90BF90AF901C
:100AB0009F908F900895809153048F7789F780914C
:100AC0005F0490916004A0916104B0916204843647
:100AD0009105A105B10520F3C0905B04D0905C04A2
:100AE000E0905D04F0905E04C114D104E104F104CF
:100AF000B9F240E0C701B6010E94EC04882381F2FC
:100B00008091A0029091A1028115924049F6A09196
:100B1000A502AA2329F26091A3027091A402611593
:100B2000710509F4BDCF2091A202222309F4B8CFA8
:100B3000A093CA052093BC0590E080E030E0E1E09E
:100B4000F0E0C82FAF01082E02C0440F551F0A94D1
:100B5000E2F72417350769F041E0480F0196893024
:100B6000910579F74093C5059BCFC12CD12C760117
:100B7000C0CF8093C5052091AB023091AC0250E00C
:100B800040E02115310541F42091B9023091BA02BB
:100B90004091BB025091BC022093BD053093BE052D
:100BA0004093BF055093C00546015701860E971E1E
:100BB000A11CB11C8092CB059092CC05A092CD05D2
:100BC000B092CE05E091A602F091A702F093D10574
:100BD000E093D005B0E00E94481CDC01CB01880DF9
:100BE000991DAA1DBB1D8093D2059093D305A09398
:100BF000D405B093D50525E0EE0FFF1F2A95E1F748
:100C0000E150FE4FEF2FFF27E6958E0F9F1FA11D8E
:100C1000B11D8093C6059093C705A093C805B093F6
:100C2000C9058090A8029090A902B12CA12C811432
:100C3000910441F48090B5029090B602A090B70262
:100C4000B090B802C81AD90AEA0AFB0AC80CD91C23
:100C5000EA1CFB1C04C0F694E794D794C794CA9589
:100C6000D2F7C092C105D092C205E092C305F092BE
:100C7000C40585EFC8168FE0D806E104F10428F416
:100C80008CE08093CF0581E00CCF80E125EFC21688
:100C90002FEFD206E104F104A0F38091C1029091FC
:100CA000C202A091C302B091C4028093D205909376
:100CB000D305A093D405B093D50580E2E2CF4F923F
:100CC0005F926F927F928F929F92AF92BF92CF92DC
:100CD000DF92EF92FF920F931F93CF93DF93EC017C
:100CE000423051056105710590F480E0DF91CF91AC
:100CF0001F910F91FF90EF90DF90CF90BF90AF903A
:100D00009F908F907F906F905F904F90089589850E
:100D10009A85AB85BC850196A11DB11D84179507E9
:100D2000A607B70710F3CB88DC88ED88FE888F898B
:100D3000803109F042C0BB27A72F962F852F48018D
:100D400059012A013B01C80ED91EEA1EFB1E8091E3
:100D5000000190910101A0910201B0910301C81618
:100D6000D906EA06FB0699F58F898031C1F5B301F2
:100D7000A201552766277727440F551F4B565D4F15
:100D8000FA01918280828091820281608093820246
:100D90008A89823080F08D819E81AF81B8858C0DEB
:100DA0009D1DAE1DBF1D8093830290938402A0936E
:100DB0008502B093860281E099CFDB01CA01E7E0AA
:100DC000B695A79597958795EA95D1F7B8CF40E066
:100DD000C701B6010E94EC048111C6CF86CFB301D2
:100DE000A2014F77552766277727440F551F440FD9
:100DF000551F4B565D4FFA0180829182A282B382C9
:100E0000C2CF8F929F92AF92BF92CF92DF92EF921A
:100E1000FF920F931F93CF93DF93FC0181859285FF
:100E2000A385B4850196A11DB11D84179507A6075A
:100E3000B70770F480E0DF91CF911F910F91FF9081
:100E4000EF90DF90CF90BF90AF909F908F900895DC
:100E500083889488A588B6888789803189F5BB27DF
:100E6000A72F962F852FE9016A017B018F01BC0115
:100E7000CD01680D791D8A1D9B1D80900001909009
:100E80000101A0900201B090030186169706A80602
:100E9000B90601F5F8018789803111F5DD24EE24CA
:100EA000FF24F601EE0FFF1FEB56FD4F808191816D
:100EB000B0E0A0E088839983AA83BB8381E0BBCFA5
:100EC000DB01CA01C7E0B695A79597958795CA95A6
:100ED000D1F7C9CF40E00E94EC048111DBCFAACF4B
:100EE000E894C7F8DD24EE24FF24F601EE0FFF1F7F
:100EF000EE0FFF1FEB56FD4F80819181A281B381E0
:100F0000BF70D8CF4F925F926F927F92AF92BF9295
:100F1000CF92DF92EF92FF920F931F93CF93DF93C5
:100F200000D000D0CDB7DEB78C0149835A836B83E4
:100F30007C835901C12CD12C7601412C82E0582EA2
:100F4000612C712C49815A816B817C819E012F5FBC
:100F50003F4FC8010E940107882339F1F8018585B8
:100F6000A301920104C0220F331F441F551F8A950D
:100F7000D2F7DA01C901C80ED91EEA1EFB1E49814B
:100F80005A816B817C818789803111F188EF9FEFD5
:100F9000AFEFBFE0481759076A077B0798F2F501E2
:100FA000C082D182E282F38281E00F900F900F9095
:100FB0000F90DF91CF911F910F91FF90EF90DF90F5
:100FC000CF90BF90AF907F906F905F904F900895BB
:100FD00088EF9FEFA0E0B0E0DDCFCF93DF93FC017F
:100FE0002581222321F080E0DF91CF910895EC014B
:100FF0008091CF05803159F582E08583178A108E64
:10100000118E128E8091D0059091D105B0E0A0E0B4
:1010100025E0880F991FAA1FBB1F2A95D1F7838B44
:10102000948BA58BB68B88EB95E09C8F8B8F81E0A2
:101030008C831E821F82188619861A861B861C8640
:101040001D861E861F86188A198A1A8ACDCF80327D
:1010500051F683E085834091D2055091D30560918C
:10106000D4057091D505478B508F618F728F9F018A
:101070002D5E3F4F88EB95E00E9482078111D3CF10
:10108000B2CF8F929F92AF92BF92CF92DF92EF92A8
:10109000FF920F931F93CF93DF93EC018D8181110A
:1010A0000EC080E0DF91CF911F910F91FF90EF90E4
:1010B000DF90CF90BF90AF909F908F9008950B8955
:1010C0001C892D893E89041715072607370748F321
:1010D0004A015B01823031F48A869B86AC86BD86EC
:1010E00081E0E0CF81149104A104B10449F41E828F
:1010F0001F82188619861A861B861C861D86F0CFCD
:101100000A851B852C853D85EB8DFC8D858590E0C2
:101110000996B901A8014150510961097109082EC8
:1011200004C076956795579547950A94D2F775014F
:101130006401E1E0CE1AD108E108F10804C0F69498
:10114000E794D794C7948A95D2F7C416D506E606D5
:10115000F70620F0012B022B032B11F58F89988DB8
:10116000A98DBA8D8E839F83A887B9878E010A5F68
:101170001F4FC114D104E104F10409F4ADCF4E8135
:101180005F816885798598018B8D9C8D0E94010710
:1011900091E0C91AD108E108F1088111EACF81CFA5
:1011A000C41AD50AE60AF70AE1CF3F924F925F923E
:1011B0006F927F928F929F92AF92BF92CF92DF9267
:1011C000EF92FF920F931F93CF93DF93CDB7DEB7CC
:1011D0002C970FB6F894DEBF0FBECDBF5C01DC01CB
:1011E0005B968D909C905C9716964D905D906D905F
:1011F0007C901997411451046104710409F468C08A
:10120000BFEF4B1A5B0A6B0A7B0A312CF401818514
:101210009285A385B4859C01AD012F5F3F4F4F4F51
:101220005F4F29873A874B875C87730162011D8274
:101230001E821F821886F40181859285A385B4855C
:101240002D813E814F815885281739074A075B0752
:1012500008F056C089859A85AB85BC858C159D059F
:10126000AE05BF0550F482E0C82ED12CE12CF12C44
:1012700092E0492E512C612C712C9E012F5F3F4F23
:10128000B701A601C4010E9401078823C9F1898121
:101290009A81AB81BC81892B8A2B8B2B09F126018A
:1012A00037019FEF491A590A690A790A2D813E814F
:1012B0004F8158852F5F3F4F4F4F5F4F2D833E83A8
:1012C0004F8358873FEFC31AD30AE30AF30AB3CF19
:1012D000F40140805180628073803324339496CF30
:1012E000C414D504E604F70409F70FEF1FEF2FEF3E
:1012F0003FE0B701A601C4010E945F06811119C039
:1013000080E02C960FB6F894DEBF0FBECDBFDF9104
:10131000CF911F910F91FF90EF90DF90CF90BF90F2
:10132000AF909F908F907F906F905F904F903F9085
:101330000895D50116964D915D916D917C91199707
:10134000411551056105710539F097018601C40108
:101350000E945F068823A1F2D5011696CD92DD92F8
:10136000ED92FC921997332051F0D701C6010196F6
:10137000A11DB11DF40180839183A283B383F50184
:101380008789908DA18DB28D892B8A2B8B2B39F477
:101390008481C78AD08EE18EF28E80688483F501C5
:1013A00084818062848381E0ACCF1F93CF93DF93ED
:1013B000FC0125812223D1F1162FEC01848187FFC6
:1013C0002AC0668577858089918941E00E94EC0476
:1013D000882361F1EA8980E2E89FF0011124EB564D
:1013E000FD4F309719F18D81823040F48B899C89B3
:1013F000AD89BE89848F958FA68FB78F8F89988D81
:10140000938F828F8F89988DA98DBA8DB58BA48B80
:101410008C818F778C83111103C08C818F7E8C839C
:10142000812FDF91CF911F910C94C10480E0DF9157
:10143000CF911F910895FF920F931F93CF93DF9346
:10144000EC018D81813041F090E080E0DF91CF911F
:101450001F910F91FF9008958C8181FFF5CF82FD40
:101460001BC00091950410919604C8010E941A03B4
:101470000E94F902F82EC8010E94E7028FEFF812CD
:10148000E3CF8C8185FF1BC060E0CE010E94D509AF
:101490008C818F7D8C83D8CF4B895C896D897E89C7
:1014A0008A859B85AC85BD8584179507A607B707F8
:1014B000C1F2CE010E9441088111D3CFC5CF409126
:1014C0008302509184026091850270918602452BBF
:1014D000462B472B21F080E00E949D04B5CF806110
:1014E0008C832A853B85317080E092E0821B930BD0
:1014F000ADCFCF93DF93EC0161E00E94D509882343
:1015000011F01D8281E0DF91CF9108952F923F92DB
:101510004F925F926F927F928F929F92AF92BF9203
:10152000CF92DF92EF92FF920F931F93CF93DF93AF
:1015300000D000D01F92CDB7DEB77C015B01342E06
:101540005D83DC0115968C911597813009F0CEC032
:1015500014962C9021FECAC022FCB4C0C32CDD809E
:1015600022947FE027222094B22DB1702B2ED70138
:101570001A964D915D916D917C911D97C114D10486
:1015800009F428C15B968D919C915C97FC01748055
:101590007A948A019B0169E03695279517950795FE
:1015A0006A95D1F770228A011170711020C001155F
:1015B0001105E9F416964D915D916D917C91199705
:1015C000411551056105710509F099C057968D9136
:1015D0009D910D90BC91A02D0097A105B10509F03A
:1015E000B0C0C7010E94D508882309F47FC080E0FD
:1015F00092E0801B910B46018C159D0508F44C016F
:10160000D7015B964D915C915C9716968D919D915B
:101610000D90BC91A02D0297A109B109FA01258571
:1016200004C0880F991FAA1FBB1F2A95D2F74685B1
:10163000578560897189840F951FA61FB71F9C016C
:10164000AD01270D311D411D511D29013A018114A4
:1016500032E0930609F07BC0809100019091010176
:10166000A0910201B091030184159505A605B70567
:1016700059F48FEF9FEFDC018093000190930101FB
:10168000A0930201B0930301022D9501B301A201C1
:1016900080919504909196040E942F04882331F143
:1016A0009EEFB91AC818D908F70182859385A485D9
:1016B000B585880D991DA11DB11D82879387A487CB
:1016C000B58755CFF7014389548965897689828525
:1016D0009385A485B585481759076A077B0709F4E0
:1016E0003DCFC7010E944108811138CF81E090E0D1
:1016F000D70113969C938E93129780E007C09E01AA
:101700002F5F3F4F0E940107811102C090E079C016
:1017100089819A81AB81BC81F701238D348DF901D8
:10172000278948EF5FEF60E070E0203121F048EF5B
:101730005FEF6FEF7FE084179507A607B70708F004
:1017400050CFF70186839783A087B18750CF0115CB
:10175000110599F5D7011A964D915D916D917C9186
:101760001D9753968D919D910D90BC91A02D48177A
:1017700059076A077B0708F181E00E94C1048823AA
:1017800009F4B4CF4092000150920101609202012D
:101790007092030180918202816080938202C8016D
:1017A0008B569D4FD5019C01280D391DFC012E172C
:1017B0003F0759F04D914193FACF41E0C301B20187
:1017C0000E94EC048111EBCF91CF281B390BA20EA4
:1017D000B31E68CFF70183899489A589B6898417D8
:1017E0009507A607B70738F48481438B548B658B24
:1017F000768B80688483F701848183FD1AC0832DF2
:101800009D810F900F900F900F900F90DF91CF91CF
:101810001F910F91FF90EF90DF90CF90BF90AF900E
:101820009F908F907F906F905F904F903F902F9000
:10183000089561E0C7010E94D509882309F456CFB5
:10184000DECFCF93DF931F92CDB7DEB7698341E040
:1018500050E0BE016F5F7F4F0E94860A0F90DF91BC
:10186000CF910895FC01DB0112968D919C91139705
:101870009383828380E291E09183808314968C919C
:101880001497848315968C911597858316964D91A0
:101890005D916D917C91199746835783608771871D
:1018A0001A964D915D916D917C911D97428753875A
:1018B000648775871E964D915D916D917C915197CE
:1018C00046875787608B718B52968C915297828B8B
:1018D00053964D915D916D917C915697438B548BAE
:1018E000658B768B57964D915D916D917C915A9752
:1018F000478B508F618F728F5B968D919C91948FE7
:10190000838F0895FC01818D928D009719F061E01D
:101910000C94D5090895DC015996ED91FC9130970E
:10192000B9F083899489A589B689428553856485F0
:101930007585841B950BA60BB70B811520E89207C4
:10194000A105B10538F08FEF9FE7A0E0B0E0089562
:1019500090E080E00895DC0159968D919C9100976C
:1019600039F0DC01ED91FC910480F581E02D0994C2
:1019700090E080E00895CF93DF93EC01E98DFA8D3C
:10198000309749F481E090E09B838A8390E080E087
:10199000DF91CF91089513821282898D9A8D0E94D2
:1019A000860AE98DFA8D22813381232B59F7F0CFF6
:1019B000CF93DF931F92CDB7DEB76983DC01ED9142
:1019C000FC910280F381E02D41E050E0BE016F5FA9
:1019D0007F4F09950F90DF91CF9108952F923F92FD
:1019E0004F925F926F927F928F929F92AF92BF922F
:1019F000CF92DF92EF92FF920F931F93CF93DF93DB
:101A000000D01F92CDB7DEB7FC018581811118C0CF
:101A10008FEF9FEF0F900F900F90DF91CF911F915D
:101A20000F91FF90EF90DF90CF90BF90AF909F907D
:101A30008F907F906F905F904F903F902F90089580
:101A4000848180FFE5CF43895489658976898285C1
:101A50009385A485B585312C212C481759076A0731
:101A60007B0719F022242394312C6F012101CE0130
:101A700001963C01DF011696BB83AA8341145104F1
:101A800009F4C5C0F60142855385648575854A0110
:101A9000F1E09F22D6015B968D919C915C978A0123
:101AA0009B01E9E03695279517950795EA95D1F7BB
:101AB0001596EC91E230E9F5FC01628D738D848D11
:101AC000958D600F711F821F931FA12C22E0B22EF3
:101AD000A818B9084A145B0408F45201F6012481DD
:101AE00026FD04C0A114F2E0BF0671F400910001CC
:101AF000109101012091020130910301061717078F
:101B00002807390709F05EC040E00E94EC048823F2
:101B100009F47ECFC4018B569D4FD3019C012A0D41
:101B20003B1DFC012E173F0709F46CC041914D93FA
:101B3000F9CFDC011496BC90BA94B02281149104C0
:101B400079F4B1100DC0452B462B472B69F5F601F2
:101B50008789908DA18DB28D86839783A087B18769
:101B6000D6015B96ED91FC915C9716966D917D91F7
:101B70008D919C9119976250710981099109258570
:101B800004C0660F771F881F991F2A95D2F7068514
:101B9000178520893189600F711F821F931F6B0D7C
:101BA000711D811D911D91CFD60116964D915D91AC
:101BB0006D917C9119972A813B810E9401078111C7
:101BC000CFCF26CF730185019401AB01BC01809179
:101BD0009504909196040E948D03882309F418CFF0
:101BE0006A0C7B1CF60182859385A485B5858A0DD8
:101BF0009B1DA11DB11D82879387A487B5874A18B5
:101C00005B083CCF281B390B620E731EEBCF2A9466
:101C1000232809F0FDCE898190E0FCCEFC01818D66
:101C2000928D009711F00C94EE0C8FEF9FEF0895BA
:101C30000F931F93CF93DF93EC01898D9A8D10E062
:101C400000E0009799F00E94EE0C8C010F3F100706
:101C500069F0898D9A8DFC0142855385648575856F
:101C600041505109610971090E944108C801DF9181
:101C7000CF911F910F9108951F93CF93DF93C1E0F0
:101C8000C0933C02882399F1D091B8001091BA001A
:101C90008091BC008A7B8093BC0060E082E10E945E
:101CA0001F0260E083E10E941F021092E304C093D0
:101CB000E2041092BD0461E082E10E941F0261E033
:101CC00083E10E941F028091B9008E7F8093B9004A
:101CD0008091B9008D7F8093B90088E48093B8002B
:101CE00085E48093BC001093BA00D093B800DF91D4
:101CF000CF911F91089520915D02260F3327331F46
:101D000021323105ECF42091E304FC0190E080E005
:101D1000243069F082E00895A0915D022191AC0128
:101D2000435C5D4FA40FB52FB11D2C930196861710
:101D300098F380915D02680F60935D0280E00895E2
:101D400081E008950895E091BB048091BC04E817F8
:101D500030F4F0E0E556FB4F808190E008958FEF7E
:101D60009FEF08959091BB048091BC042FEF3FEF4B
:101D7000981748F4E92FF0E0E556FB4F208130E05A
:101D80009F5F9093BB04C9010895CF92DF92EF92B9
:101D9000FF920F931F93CF93DF937C01CB018A01B6
:101DA00020910C05222389F0EB016B01C40ED51E96
:101DB000CC15DD0569F06991D701ED91FC91019099
:101DC000F081E02DC7010995F3CF642F0E947B0EAF
:101DD000C801DF91CF911F910F91FF90EF90DF909D
:101DE000CF900895CF93DF931F92CDB7DEB769836D
:101DF00020910C052223F9F020910905203258F09A
:101E000021E030E0FC013383228390E080E00F90FA
:101E1000DF91CF91089580910A05E82FF0E0E75116
:101E2000FB4F998190838F5F80930A05809309050A
:101E300081E090E0ECCF61E0CE0101960E947B0E44
:101E4000F7CFCF92DF92EF92FF920F931F93CF9332
:101E5000DF93D62FC091A60691E090930C05C09316
:101E60000B0510920A0510920905682F85EF95E081
:101E70000E94F20E80E08D1758F4E091A706F091D1
:101E8000A806608185EF95E00E94F20E81E0F3CF15
:101E9000D091090591E0D13208F09AC00E947E02EB
:101EA0006B017C018091E30481116CC082E080931E
:101EB000E30481E08093E2048FEF8093E1041092C9
:101EC000E004D093DF04E9EEF4E0AFEBB4E080E0AF
:101ED000D81390C01092BE048091BE04CC0FC82BC2
:101EE000C093BE048091BD04813009F087C0109278
:101EF000BD040E947E026B017C018091BE04809330
:101F0000BB008091E5049091E604A091E704B091B4
:101F1000E804892B8A2B8B2BA1F00E947E02009172
:101F2000E5041091E6042091E7043091E8046C196F
:101F30007D098E099F09061717072807390708F436
:101F400042C08091BC0083FDD8CF85EC8093BC005B
:101F50000E947E026B017C018091E304823009F4CF
:101F60004FC08091E10490E08F3F91F18091E104B6
:101F700092E0803269F18091E10494E0803341F590
:101F800093E026C08091E5049091E604A091E704D7
:101F9000B091E804892B8A2B8B2B09F483CF0E9404
:101FA0007E020091E5041091E6042091E70430914F
:101FB000E8046C197D098E099F0906171707280781
:101FC000390708F06FCF8091E4040E943C0E95E041
:101FD00010920A051092090510920C0581E09111EA
:101FE00080E0DF91CF911F910F91FF90EF90DF90F4
:101FF000CF90089591919D938F5F6ACF85EEA6CF84
:102000008091E5049091E604A091E704B091E80482
:10201000892B8A2B8B2B09F49FCF0E947E02009183
:10202000E5041091E6042091E7043091E8046C196E
:102030007D098E099F09061717072807390708F039
:102040008BCFC1CF089590E080E00895CF92DF92CA
:10205000EF92FF921F93CF93DF93EC0180E2689F92
:10206000F0011124EB56FD4F9385917161F0842F9F
:10207000827449F080E0DF91CF911F91FF90EF9043
:10208000DF90CF900895142F6A8B8091000190917A
:102090000101A0910201B09103018E879F87A88B57
:1020A000B98BC488D588F12CE12C7601DD24CC24B1
:1020B000CF8AD88EE98EFA8E828D938DB0E0A0E023
:1020C000AC01BD014C295D296E297F294F8B588FAA
:1020D000698F7A8F83858871B1F4848D958DA68DF3
:1020E000B78D8B8B9C8BAD8BBE8B81E08D831F70EE
:1020F0001C831E821F82188619861A861B861C86E0
:102100001D8681E0B8CF803109F0B4CF9E012D5EED
:102110003F4F8B8D9C8D0E948207882309F4AACFA4
:1021200084E0E4CFCF93DF93EC0160E08E810E94E6
:102130001F0261E08E810E941F0260E08E810E947A
:102140001F028BE891E00197F1F7DF91CF9108959D
:10215000CF92DF92EF92FF920F931F93CF93DF9373
:102160006C017C0187E0E80EF11CD0E0C0E0062F96
:1021700010E0B8010C2E02C0759567950A94E2F73D
:102180006170F70181917F010E941F022196C43086
:10219000D10579F7C601DF91CF911F910F91FF9083
:1021A000EF90DF90CF900C949210CF92DF92EF924D
:1021B000FF920F931F93CF93DF93EC01F62E642FC2
:1021C0008C810E941F028D818F3F19F060E00E9478
:1021D0001F020F2D10E08F8584FF25C06E0187E060
:1021E000C80ED11CF12CE12CB8010E2C02C0759543
:1021F00067950A94E2F76170F60181916F010E9480
:102200001F02FFEFEF1AFF0A88E0E816F10461F7FA
:10221000CE01DF91CF911F910F91FF90EF90DF9052
:10222000CF900C949210B80184E0759567958A95CB
:10223000E1F7CE010E94A8106F2DCE01DF91CF9162
:102240001F910F91FF90EF90DF90CF900C94A8100A
:1022500040E0682F8EE896E00C94D51081E00E9453
:1022600028118BE39FE10197F1F70895CF93DF9356
:10227000613029F090919D06986090939D0660933F
:10228000A1061092A20690E49093A3068093A40660
:10229000805C8093A50661E0809192060E944D02C9
:1022A000809193068F3F19F061E00E944D0261E03A
:1022B000809194060E944D02CEE8D6E09E012E58F1
:1022C000364080919D0684FD0BC084E090E021960D
:1022D0002817390744F461E08E810E944D02EECF49
:1022E00088E090E0F4CF8BE39DE00197F1F760E0A8
:1022F000809192060E941F0260E0809194060E94E5
:102300001F02809193068F3F19F060E00E941F0228
:1023100080919D0684FD34C063E08EE896E00E94C3
:10232000A810CBE4D6E4CE010197F1F763E08EE884
:1023300096E00E94A8102197F1F763E08EE896E0FE
:102340000E94A81083E592E00197F1F762E08EE821
:1023500096E00E94A81080919D0680620E9428113C
:1023600084E080939E068CE00E9428110E942E112A
:1023700082E080939F0686E0DF91CF910C94281134
:1023800080620E9428118BE496E40197F1F7809116
:102390009D0680620E94281183E592E00197F1F783
:1023A00080919D0680620E942811D5CF9091A10650
:1023B000891710F08FEF890FE82FF0E0E257F94FFF
:1023C000848980680C94281141E00E94D51081E036
:1023D00090E00895CF92DF92EF92FF920F931F93B8
:1023E000CF93DF93D82FC62F70E08091A7069091EE
:1023F000A8060E94F21D9093A8068093A70660E0AD
:102400008D2F0E94210F882309F4DDC0D091A606EC
:102410000E947E026B017C018091E304811166C001
:1024200081E08093E3048093E2049FEF9093E104C2
:102430001092E0049C0F9093DF048093BE0480917F
:10244000BE04DD0FD82BD093BE048091BD04813033
:1024500009F093C01092BD040E947E026B017C01C2
:102460008091BE048093BB008091E5049091E604C6
:10247000A091E704B091E804892B8A2B8B2BA1F063
:102480000E947E020091E5041091E6042091E70489
:102490003091E8046C197D098E099F09061717070A
:1024A0002807390708F443C08091BC0083FDD8CFCA
:1024B00085EC8093BC000E947E026B017C018091C0
:1024C000E304813009F45BC08091E0048C1708F0CC
:1024D00078C08091E004EFEBF4E0ABE9B4E090E089
:1024E000981751F121912D939F5FFACF8091E504C8
:1024F0009091E604A091E704B091E804892B8A2B1F
:102500008B2B09F489CF0E947E020091E504109183
:10251000E6042091E7043091E8046C197D098E09E6
:102520009F09061717072807390708F075CF80910C
:10253000E4040E943C0E80E01092BB048093BC0433
:102540008C17F0F310E000E085EF95E00E94B20EEA
:10255000E091A706F091A806E00FF11F80830F5FBE
:102560001F4F0C1788F381E0DF91CF911F910F91DE
:10257000FF90EF90DF90CF90089585EE9ACF8091F5
:10258000E5049091E604A091E704B091E804892B5A
:102590008A2B8B2B09F493CF0E947E020091E504D5
:1025A0001091E6042091E7043091E8046C197D094C
:1025B0008E099F09061717072807390708F07FCFEC
:1025C000B6CF8C2F88CFD0CFFB0101900020E9F748
:1025D0003197AF01461B570BDC01ED91FC91028056
:1025E000F381E02D09948F929F92AF92BF920F9347
:1025F0001F93CF93DF93CDB7DEB7A1970FB6F894B3
:10260000DEBF0FBECDBF19A2423008F44AE08E01F2
:102610000F5D1F4F842E912CB12CA12CA50194018C
:102620000E94A51CE62FB901CA01EA3004F5E05D5D
:10263000D801EE938D01232B242B252B79F790E0E5
:1026400080E0109729F0BD018EE896E00E94E41228
:10265000A1960FB6F894DEBF0FBECDBFDF91CF912C
:102660001F910F91BF90AF909F908F900895E95C5C
:10267000DFCFBC018EE896E00C94E412EF92FF925B
:102680000F931F93CF93DF93EC017B011982188284
:102690001B821A821D821C82FB0101900020E9F737
:1026A00031978F01061B170BB8016F5F7F4F90E0CA
:1026B00080E00E94F21D0097B9F0998388831B8304
:1026C0000A832C813D81232B11F4FC0110821D8390
:1026D0000C83B70188819981DF91CF911F910F9170
:1026E000FF90EF900C94C51E88819981009711F09E
:1026F0000E94691D198218821D821C821B821A8207
:10270000DF91CF911F910F91FF90EF9008953F922D
:102710004F925F926F927F928F929F92AF92BF92F1
:10272000CF92DF92EF92FF920F931F93CF93DF939D
:10273000CDB7DEB72B970FB6F894DEBF0FBECDBF77
:102740007C01FE013196CE010C966F0130E231938F
:10275000E817F907E1F7DA0130E087E09D91B92E3B
:10276000992309F43CC09E32F1F48A30C9F480E028
:102770002B960FB6F894DEBF0FBECDBFDF91CF9181
:102780001F910F91FF90EF90DF90CF90BF90AF908F
:102790009F908F907F906F905F904F903F900895A3
:1027A00038E08AE0DBCFE8E6F0E04491442321F012
:1027B00031969413FACFDBCF8317C8F24FED490F50
:1027C0004E35A8F64FE9490F4A3118F440EEB42EC1
:1027D000B90EF601E30FF11DB0823F5FBFCF8981D3
:1027E000803229F2322E8B01DB015B968D919C9118
:1027F0005C97F701948F838F16961D921D921D9200
:102800001C921997FB011286138614861586F8010F
:1028100082859385A485B5854389548965897689A0
:1028200084179507A607B70708F04DC025E0B695B1
:10283000A795979587952A95D1F7F82FFF70AF2E1A
:10284000D80115968C91823008F491CFC8010E946E
:10285000EE0C97FD8CCFF80182859385A485B58514
:102860004F96A11DB11D82879387A487B587F0E29B
:10287000AF9EB00111246B567D4F6115710509F4AF
:1028800076CFDB018C91882341F0853E09F062C050
:10289000BB2029F0BB24B394BACFB1100EC0F7010E
:1028A000A28A8091000190910101A0910201B09152
:1028B000030186879787A08BB18BDB018C918111F7
:1028C000E9CFBB24B394832D8271823109F04FCFBD
:1028D000BB2009F44DC0F701668577858089918911
:1028E00041E00E94EC04882309F441CFD7015296BD
:1028F0008C91B0E28B9FC00111248B569D4F0097A5
:1029000009F435CFFC013A9626E1DF011D922A95A4
:10291000E9F72BE0F601DC0101900D922A95E1F731
:1029200021E238E2FC01318B208B40E058E05787F0
:102930004687338B228B318F208F578B468B81E0DC
:102940000E94C104882309F412CF432DD701529667
:102950006C910AC04BE050E0C6010E94AF1E892B6B
:1029600009F055CF432D6A2DC7010E94261000CFD4
:10297000F8018581823009F4FACEC8010E94D50899
:10298000882309F4F4CED8015B96ED91FC915C9715
:1029900016968D909D90AD90BC901997B2E08B1AD1
:1029A0009108A108B108858504C0880C991CAA1C4F
:1029B000BB1C8A95D2F786859785A089B189880E38
:1029C000991EAA1EBB1E848124013501480E511C8C
:1029D000611C711C84149504A604B70409F1E1E09C
:1029E0004E1A51086108710881E00E94C1048823D1
:1029F00009F4BDCEE5E9F2E0119285E994E08E1785
:102A00009F07D1F7409200015092010160920201AC
:102A10007092030180918202816080938202DACFFA
:102A2000D8015B96ED91FC91258580E092E0A0E0D5
:102A3000B0E004C0880F991FAA1FBB1F2A95D2F7C8
:102A4000F8014389548965897689840F951FA61FEB
:102A5000B71F838B948BA58BB68BD70152961C9294
:102A600085E992E04FCFEF92FF920F931F93CF93A0
:102A7000DF93EC017B018A011B821A8288EE93E0CE
:102A8000A0E0B0E08C839D83AE83BF838EE391E0B2
:102A9000998388838DE190E00E94CD1C9A8F898F65
:102AA000009779F02DE1F701DC0101900D922A9554
:102AB000E1F74CE050E0B801CE010C960E94CC1E2C
:102AC000188EDF91CF911F910F91FF90EF90089595
:102AD00085ED8093BC008091E5049091E604A0917F
:102AE000E704B091E8040796A11DB11D23E0B69557
:102AF000A795979587952A95D1F72091BC0024FD3D
:102B000003C01092E30408954091E5045091E60457
:102B10006091E7047091E804452B462B472B69F33D
:102B20000097A105B10541F02AE22A95F1F700C00E
:102B30000197A109B109E1CF8091E4040C943C0E06
:102B40001F920F920FB60F9211242F933F934F9322
:102B50005F936F937F938F939F93AF93BF93EF9305
:102B6000FF938DE095E00E946701FF91EF91BF9187
:102B7000AF919F918F917F916F915F914F913F9115
:102B80002F910F900FBE0F901F9018951F920F92CC
:102B90000FB60F9211242F938F939F93EF93FF9370
:102BA000E0911D05F0911E058081E0912305F091D3
:102BB000240582FD1BC09081809126058F5F8F7355
:102BC00020912705821741F0E0912605F0E0E35FB0
:102BD000FA4F958F80932605FF91EF919F918F91EA
:102BE0002F910F900FBE0F901F9018958081F4CFFA
:102BF0001F920F920FB60F9211242F933F938F9332
:102C00009F93AF93BF938091880290918902A09186
:102C10008A02B0918B023091870223E0230F2D3777
:102C200058F50196A11DB11D20938702809388025B
:102C300090938902A0938A02B0938B0280918C02B8
:102C400090918D02A0918E02B0918F020196A11DEC
:102C5000B11D80938C0290938D02A0938E02B0934D
:102C60008F02BF91AF919F918F913F912F910F90C4
:102C70000FBE0F901F90189526E8230F0296A11DF6
:102C8000B11DD2CF1F920F920FB60F9211242F9326
:102C90003F934F935F936F937F938F939F93AF93E4
:102CA000BF93EF93FF938091B900887F803609F43A
:102CB0004AC0F0F5883209F4A5C018F5803109F44E
:102CC00099C0B8F4882309F4F5C0883009F492C09B
:102CD000FF91EF91BF91AF919F918F917F916F91F4
:102CE0005F914F913F912F910F900FBE0F901F90CA
:102CF0001895883109F486C0803251F78093E10439
:102D000014C0803409F49BC040F48033B9F3883395
:102D1000F9F68093E10485ECAEC0803509F483C0F8
:102D2000883509F494C0883499F60E946815D0CF8C
:102D3000883909F48AC038F5883729F050F4883684
:102D400011F0803729F683E08093E30410927F022C
:102D500055C0883809F479C0803919F0803809F0F5
:102D6000B7CF80917F02803208F06FC0E0917F0280
:102D700081E08E0F80937F028091BB00F0E0E15AEA
:102D8000FD4F80833BC0803B39F0D0F4803A09F49A
:102D900077C0883A09F09CCF84E08093E3041092D6
:102DA0005E0210925D02F0E0E0E0099580915D0224
:102DB00081110FC081E080935D0210923D0209C035
:102DC000803C09F4A8CF883C09F4A5CF883B09F0E2
:102DD0007FCFE0915E0281E08E0F80935E02F0E093
:102DE000E35CFD4F80818093BB0090915E028091F7
:102DF0005D0229C08091BE048093BB0085EC809366
:102E0000BC0066CF9091E0048091DF04981758F5DC
:102E1000E091E00481E08E0F8093E004F0E0E15463
:102E2000FB4F8081E9CFE091E00481E08E0F809339
:102E3000E0048091BB00F0E0E154FB4F808390916F
:102E4000E0048091DF049817C8F285E8D8CFE091BC
:102E5000E00481E08E0F8093E0048091BB00F0E0FD
:102E6000E154FB4F80838091E20481115ECF81E0C9
:102E70008093BD0484EA8093BC001092E30428CFC1
:102E800085EC8093BC001092E30480917F02803235
:102E900030F4E0917F02F0E0E15AFD4F1082609142
:102EA0007F0270E08FE592E0F0E0E0E0099510929B
:102EB0007F020ECF1092E10438CFCF92DF92EF92D3
:102EC000FF92CF93DF93EDE0F5E01382128288EE5C
:102ED000C82E83E0D82EE12CF12CC482D582E68264
:102EE000F7828EE091E09183808385EC90E0958776
:102EF000848784EC90E09787868780EC90E0918BC4
:102F0000808B81EC90E0938B828B82EC90E0958BB0
:102F1000848B86EC90E0978B868B118E128E138EAD
:102F2000148EEAEAF5E080E580831182ECEAF5E0B0
:102F3000158216821186138682E090E0A0E0B0E050
:102F400084879587A687B78713A215A614A680E263
:102F500091E093A782A717A6E5EFF5E0138212820E
:102F6000C482D582E682F7828CE291E091838083ED
:102F7000C6EAD6E088E6888385E090E00E94CD1C12
:102F80009A838983EEE8F6E01382128280E591E06D
:102F90009183808389E084838FEF858388E08683B3
:102FA00087E0878386E0808785E0818784E0828769
:102FB0001386148615861686178661E080E10E94C6
:102FC0003611E3E7F6E013821282C482D582E682EC
:102FD000F7828EE391E091838083128E118E1486A6
:102FE00068E571E08BE296E00E943E136CE571E0CB
:102FF00081E396E00E943E1360E671E087E396E08D
:103000000E943E1364E671E08DE396E00E943E1359
:1030100068E671E083E496E00E943E136CE671E09E
:1030200089E496E00E943E1360E771E08FE496E049
:103030000E943E1364E771E085E596E00E943E132E
:1030400068E771E08BE596E00E943E136CE771E063
:1030500081E696E00E943E1360E871E087E696E024
:103060000E943E1364E871E08DE696E00E943E13F4
:1030700068E871E081E096E00E943E136CE871E040
:1030800087E096E00E943E1360E971E08DE096E0F3
:103090000E943E1364E971E083E196E00E943E13D2
:1030A00068E971E089E196E00E943E136CE971E005
:1030B0008FE196E00E943E1360EA71E085E296E0BF
:1030C000DF91CF91FF90EF90DF90CF900C943E1363
:1030D000CF93DF93CDB7DEB7C257D1090FB6F894BF
:1030E000DEBF0FBECDBF789484B5826084BD84B549
:1030F000816084BD85B5826085BD85B5816085BDF3
:1031000080916E00816080936E00109281008091AA
:103110008100826080938100809181008160809332
:103120008100809180008160809380008091B10057
:1031300084608093B1008091B00081608093B00082
:1031400080917A00846080937A0080917A00826016
:1031500080937A0080917A00816080937A008091D8
:103160007A00806880937A001092C10064E084E164
:103170000E94361160E082E00E944D023EE8C32EBC
:1031800030E0D32E9CEAA92E90E0B92E20EC822EBE
:1031900020E0922EF6018491F5011491F40104913E
:1031A000002309F472C181110E94F601E02FF0E0C2
:1031B000EE0FFF1FEE57FF4FA591B4918C9118238E
:1031C00009F463C10E942E1180E00E94D6118CEA9E
:1031D00091E00E94391368EC70E080E090E00E947A
:1031E000A3020E942E1164E083E00E94EA1188236A
:1031F000B9F1E091A706F091A80680818093900232
:103200002181822F90E0B4E095958795BA95E1F7FA
:10321000982F990F990F891B880F820F8093910225
:103220002281822F90E014E0959587951A95E1F719
:10323000982F990F990F891B880F820F8093920204
:103240002381822F90E004E0959587950A95E1F718
:10325000982F990F990F891B880F820F80939302E3
:1032600063E080E00E94EA1181110E949C0080913D
:10327000980463E00E94991C91116EC061E082E0A5
:103280000E94EA11E091A706F091A806108161E082
:1032900082E00E94EA11882309F45EC031E0712FB8
:1032A000707416FD30E0432F50E0E091A706F091D6
:1032B000A806208126FBEE24E0F8F12C4E155F05D0
:1032C00009F44AC06FE126FF6FE36223862F062EC2
:1032D000000C990BA4E095958795AA95E1F7982F96
:1032E000990F990F891B880F860F8083E091A7069D
:1032F000F091A806711159C1808121E08C3008F449
:1033000020E061E070E08C3011F070E060E0621B62
:1033100071099CE0699F800D11248083E091A706CC
:10332000F091A806A0818A2F6AE00E94991C982F2C
:10333000880F890F880F8A0F66E0440F551F6A9522
:10334000E1F7842B23232295220F207E282B208334
:1033500061E082E00E94210F63E080E00E94EA11B8
:1033600081110E949C0083E00E94D611609191021D
:1033700070E090E080E04AE00E94F3128BEB91E075
:103380000E943913809192028150990B16E0189F88
:10339000F001199FF00D1124E55DF94F448155812D
:1033A000608171818EE896E00E94E9008BEB91E0EC
:1033B0000E9439136091930270E06053784F072E9A
:1033C000000C880B990B4AE00E94F3128DEB91E000
:1033D0000E943913809190028150990B189FF0013F
:1033E000199FF00D1124EF5FF94F448155816081E1
:1033F00071818EE896E00E94E90080E00E94D6117B
:1034000060919A0470E090E080E04AE00E94F3123C
:1034100080EC91E00E9439136091990470E090E093
:1034200080E04AE00E94F31280EC91E00E943913A0
:103430006091980470E090E080E04AE00E94F3120E
:1034400061E082E00E94EA11E091A706F091A806EF
:10345000808186FFB7C0809197048111B6C088EA49
:1034600091E00E94391362EC71E08EE896E00E94D0
:10347000E41268EE73E080E090E00E94A3026CED3D
:1034800075E080E090E00E94A3028091DB05882334
:1034900021F086ED95E00E94790A1092B70510920E
:1034A000B5051092B2051092B1058AE08093B0057F
:1034B0000E94D5028B0161E08091B0050E944D020F
:1034C00061E08091B0050E941F027FB6F894809160
:1034D0009402811127C0E8ECF0E08491E4EBF0E085
:1034E0009491E82FF0E0EE0FFF1FE056FF4FA591FB
:1034F000B491EC91E92321F461E08AE00E941F027B
:1035000061E08AE00E944D028CB580618CBD8CB573
:1035100080648CBD61E08DE00E944D0261E08BE033
:103520000E944D02809194028F5F809394027FBE2F
:1035300082E58093AA051092AB058091AA0590912F
:10354000AB050E9417032AE0722E8FEF0E94F20251
:103550007A947110FACF8CEA95E00E941A0320E069
:1035600030E0A90160E08CEA95E00E943003782EFB
:103570008093B605E1E08E1759F10E94D502601BD9
:10358000710B613D774058F381E08093B1058CEA7F
:1035900095E00E94E7020E942E1180E00E94D61161
:1035A00082EE91E00E943913A2C025FB222720F968
:1035B0008081ACE06A2F0E94991C2A9F900D1124F3
:1035C0009083ACCE84EC91E04CCF84EA91E049CF7B
:1035D0002AEA31E040E050E068E08CEA95E00E94A1
:1035E000300382FF2AC07092B7058091B705412C45
:1035F000512C3201823029F4412C512C612C80E471
:10360000782E20E030E0A90167E38CEA95E00E9483
:103610003003A301920169E28CEA95E00E94300335
:103620008093B6058823D1F00E94D502601B710BF0
:10363000613D774030F388E0A8CF94E0792E0E9476
:10364000F9028093B6057A947110F9CF8A3A11F095
:1036500082E09BCF82E08093B705C7CF8091B7050A
:103660008230D1F420E030E0A9016AE38CEA95E0F1
:103670000E943003882311F086E087CF0E94F90270
:10368000807C803C19F483E08093B7050E94F902A6
:103690000E94F9020E94F9028CEA95E00E94E7027A
:1036A00080E58093AA051092AB0581E00E94360563
:1036B000882309F494C086ED95E00E94ED078823E5
:1036C00009F469CF6CE271E080E090E00E94A3020F
:1036D0000E942E1180E00E94D61185EC91E00E949C
:1036E00039136CE271E080E090E00E94A3021C823A
:1036F0001B8200E211E01A8309831E82CE0101962B
:103700000E94ED07BE016F5F7F4FCE01CB960E94F6
:10371000320C19A218A21F8F0E8F1BA221968FADFB
:103720002197811163C06C961FAE1EAE6C9788EE18
:1037300093E0A0E0B0E0A0968CAF9DAFAEAFBFAF7E
:10374000A0978EE391E06A969FAF8EAF6A97E3965B
:103750001FAE1EAEE397A5961FAEA597E396EEADFE
:10376000FFADE397309709F46CC08581882309F495
:1037700068C06AE072E0CE01885A9F4F0E94E4124E
:1037800062EC71E0CE01885A9F4F0E94E412E396EA
:103790008EAD9FADE397009761F00E94790AE396A2
:1037A0008EAD9FADE3970E94691DE3961FAE1EAEDE
:1037B000E3970E942E1180E00E94D6118FE092E0E4
:1037C0000E94391380E090E0892B09F4E3CC0E9439
:1037D0005301882309F4D6CC0E940000D3CC80E0AA
:1037E0000E943605882309F4D6CE65CF27E141E053
:1037F00052E0BE01655C7F4FCE014E960E9487135A
:10380000882309F490CFCE01CB960E94790A49A96A
:103810005AA96BA97CA9CE014E960E944108BE010F
:10382000625E7F4FCE0101960E94320C41E052E071
:10383000BE016F5F7F4FCE01885A9F4F0E943315A4
:103840008DCF0E942E1180E00E94D61188E292E076
:10385000B7CFCF93DF93CBE2D6E0269788819981CB
:10386000009711F00E94691D86E0C130D807A9F7C2
:10387000C3E7D6E0269788819981009711F00E94CE
:10388000691D86E0CB32D807A9F7DF91CF91089563
:103890000E948A1CA59F900DB49F900DA49F800D3F
:1038A000911D112408952F923F924F925F926F9233
:1038B0007F928F929F92AF92BF92CF92DF92EF92C0
:1038C000FF920F931F93CF93DF93CDB7DEB7CA1B41
:1038D000DB0B0FB6F894DEBF0FBECDBF09942A886C
:1038E000398848885F846E847D848C849B84AA8414
:1038F000B984C884DF80EE80FD800C811B81AA81A1
:10390000B981CE0FD11D0FB6F894DEBF0FBECDBF6B
:10391000ED010895A29FB001B39FC001A39F700D58
:10392000811D1124911DB29F700D811D1124911DC7
:103930000895991B79E004C0991F961708F0961B0B
:10394000881F7A95C9F780950895A1E21A2EAA1BBF
:10395000BB1BFD010DC0AA1FBB1FEE1FFF1FA2173F
:10396000B307E407F50720F0A21BB30BE40BF50B3C
:10397000661F771F881F991F1A9469F760957095C5
:10398000809590959B01AC01BD01CF010895EE0F8C
:10399000FF1F0590F491E02D09940F931F93CF938F
:1039A000DF938230910510F482E090E0E091AB0665
:1039B000F091AC0630E020E0B0E0A0E0309799F460
:1039C0002115310509F44AC0281B390B2430310573
:1039D000D8F58A819B816115710589F1FB0193837B
:1039E0008283FE0111C040815181028113814817F9
:1039F0005907E0F04817590799F4109761F01296AB
:103A00000C93129713961C933296CF01DF91CF91AE
:103A10001F910F9108950093AB061093AC06F4CF5D
:103A20002115310551F04217530738F0A901DB0188
:103A30009A01BD01DF01F801C1CFEF01F9CF9093E9
:103A4000AC068093AB06CDCFFE01E20FF31F81934E
:103A500091932250310939832883D7CF2091A90629
:103A60003091AA06232B41F42091060130910701E1
:103A70003093AA062093A9062091040130910501F4
:103A80002115310541F42DB73EB740910801509101
:103A90000901241B350BE091A906F091AA06E21753
:103AA000F307A0F42E1B3F0B2817390778F0AC0161
:103AB0004E5F5F4F2417350748F04E0F5F1F50933E
:103AC000AA064093A906819391939FCFF0E0E0E08E
:103AD0009CCFCF93DF930097E9F0FC0132971382DC
:103AE0001282A091AB06B091AC06ED0130E020E06F
:103AF0001097A1F420813181820F931F2091A90694
:103B00003091AA062817390709F061C0F093AA0678
:103B1000E093A906DF91CF910895EA01CE17DF0760
:103B2000E8F54A815B819E0141155105B1F7E90134
:103B3000FB83EA8349915991C40FD51FEC17FD0708
:103B400061F4808191810296840F951FE901998328
:103B50008883828193819B838A83F0E0E0E01296E0
:103B60008D919C9113970097B9F52D913C911197E8
:103B7000CD010296820F931F2091A9063091AA06CB
:103B80002817390739F6309751F51092AC06109284
:103B9000AB06B093AA06A093A906BCCFD383C28379
:103BA00040815181840F951FC817D90761F44E5F7A
:103BB0005F4F88819981480F591F518340838A81C3
:103BC0009B81938382832115310509F0B0CFF09357
:103BD000AC06E093AB069ECFFD01DC01C0CF1382A3
:103BE0001282D7CFB0E0A0E0E8EFFDE10C94551CC5
:103BF0008C01009751F4CB010E94CD1C8C01C801AF
:103C0000CDB7DEB7E0E10C94711CFC01E60FF71FA5
:103C10009C0122503109E217F30708F49DC0D90135
:103C2000CD91DC911197C617D70798F0C530D10513
:103C300030F3CE0104978617970708F3C61BD70BFE
:103C40002297C193D1936D937C93CF010E94691DFC
:103C5000D6CF5B01AC1ABD0A4C018C0E9D1EA09103
:103C6000AB06B091AC06512C412CF12CE12C1097F5
:103C700031F58091A9069091AA068815990509F059
:103C80005CC04616570608F058C080910401909118
:103C90000501009741F48DB79EB7409108015091FE
:103CA0000901841B950BE817F90708F055C0F0933C
:103CB000AA06E093A906F90171836083A0CF8D91D4
:103CC0009C91119712966C90129713967C90139773
:103CD000A815B90559F56C0142E0C40ED11CCA14EF
:103CE000DB0420F1AC014A195B09DA011296159741
:103CF00080F06282738251834083D9016D937C93FB
:103D0000E114F10471F0D7011396FC93EE9312972E
:103D100076CF22968C0F9D1FF90191838083F3014A
:103D2000EFCFF093AC06E093AB0669CF4816590687
:103D300008F42C017D01D3019ACFCB010E94CD1C48
:103D40007C01009749F0AE01B8010E94BC1EC80179
:103D50000E94691D870153CF10E000E050CFFB01A6
:103D6000DC0104C08D910190801921F44150504034
:103D7000C8F7881B990B0895FB01DC0102C0019074
:103D80000D9241505040D8F70895FB01DC0101909D
:103D90000D920020E1F70895FB01DC0141505040F5
:103DA00048F001900D920020C9F701C01D924150CA
:103DB0005040E0F7089510E0CAE6D0E004C0FE01EC
:103DC0000E94C71C2196CB36D107C9F7F894FFCFC4
:103DD000FFFFFFFF0000AD0680000000000089012A
:103DE000E9001601D6014701250139010000000054
:103DF000210CE9001B0A221000000000F20EC50E83
:103E00002310A20E9500B20EA30E00000000D80CE5
:103E1000BB0CAB0C820C8B0C0E0E180E00000000BD
:103E2000E411E900231022104A616E004665620029
:103E30004D617200417072004D6179004A756E00EB
:103E40004A756C0041677500536570004F637400DC
:103E50004E6F76004465630073756E006D6F6E0083
:103E60007475650077656400746875006672690032
:103E70007361740020504D0020414D0062757474D0
:103E80006F6E2070726573736564002F00202000D0
:103E90003A000D0A005344206361726420696E6920
:103EA0007469616C697A6174696F6E20646F6E65A4
:103EB0002E005344206361726420696E69746961E5
:103EC0006C697A6174696F6E206661696C656421E2
:103ED00000646174612E74787400646174610044DC
:103EE000617461207772697474656E20746F2053F9
:103EF0004420636172642E004572726F72206F708D
:0C3F0000656E696E672066696C652E00B6
:107E0000112484B714BE81FFF0D085E080938100F7
:107E100082E08093C00088E18093C10086E0809377
:107E2000C20080E18093C4008EE0C9D0259A86E02C
:107E300020E33CEF91E0309385002093840096BBD3
:107E4000B09BFECF1D9AA8958150A9F7CC24DD24C4
:107E500088248394B5E0AB2EA1E19A2EF3E0BF2EE7
:107E6000A2D0813461F49FD0082FAFD0023811F036
:107E7000013811F484E001C083E08DD089C08234E0
:107E800011F484E103C0853419F485E0A6D080C0E4
:107E9000853579F488D0E82EFF2485D0082F10E0AE
:107EA000102F00270E291F29000F111F8ED06801E7
:107EB0006FC0863521F484E090D080E0DECF843638
:107EC00009F040C070D06FD0082F6DD080E0C81688
:107ED00080E7D80618F4F601B7BEE895C0E0D1E017
:107EE00062D089930C17E1F7F0E0CF16F0E7DF06D8
:107EF00018F0F601B7BEE89568D007B600FCFDCFD4
:107F0000A601A0E0B1E02C9130E011968C91119780
:107F100090E0982F8827822B932B1296FA010C0160
:107F200087BEE89511244E5F5F4FF1E0A038BF0790
:107F300051F7F601A7BEE89507B600FCFDCF97BE46
:107F4000E89526C08437B1F42ED02DD0F82E2BD052
:107F50003CD0F601EF2C8F010F5F1F4F84911BD097
:107F6000EA94F801C1F70894C11CD11CFA94CF0C13
:107F7000D11C0EC0853739F428D08EE10CD085E9AC
:107F80000AD08FE07ACF813511F488E018D01DD067
:107F900080E101D065CF982F8091C00085FFFCCF94
:107FA0009093C60008958091C00087FFFCCF809118
:107FB000C00084FD01C0A8958091C6000895E0E648
:107FC000F0E098E1908380830895EDDF803219F02E
:107FD00088E0F5DFFFCF84E1DECF1F93182FE3DFCA
:107FE0001150E9F7F2DF1F91089580E0E8DFEE27F6
:047FF000FF270994CA
:027FFE00040479
:00000001FF
